:1000000019C028C027C026C025C024C023C022C0D4
:1000100021C020C01FC01EC01DC01DC01BC01AC0F3
:1000200019C018C017C016C015C014C013C012C024
:1000300011C010C011241FBECFEFD2E0DEBFCDBF74
:1000400021E0A0E0B1E001C01D92A330B207E1F7CA
:1000500047D060C0D5CF1F921FB61F9211242F9397
:100060008F939F9320910201809100019091010153
:100070002223B1F0213049F401979093010180933C
:100080000001009711F4109202019093890080936F
:1000900088009F918F912F911F901FBE1F901895E0
:1000A000019690930101809300018F3F23E0920716
:1000B00061F721E020930201E8CF83E8809380007C
:1000C000E1E8F0E0808181608083109289001092E5
:1000D000880082E084B981E080936F00789408956D
:1000E00083E880938000809181008160809381000B
:1000F000109289001092880082E084B981E0809398
:100100006F00789483B7816083BF889583B78E7FB3
:0801100083BFF8CFF894FFCF84
:00000001FF
