:1000000019C020C01FC01EC01DC01CC01BC01AC00C
:1000100019C018C017C016C015C014C013C012C034
:1000200011C010C010C00EC00DC00CC00BC00AC063
:1000300009C008C011241FBECFEFD2E0DEBFCDBF84
:1000400026D049C0DDCF8F938FB78F938091C600A4
:10005000813339F0823309F45D988F918FBF8F918E
:1000600018955D9A8F918FBF8F91189589E1809334
:10007000C4001092C5001092C00088E98093C100AE
:1000800086E08093C20080E38AB9789408950F9245
:10009000CDB7DEB789E18093C4001092C5001092FD
:1000A000C00088E98093C10086E08093C20080E3AD
:1000B0008AB9789490E189818F5F89838BB1892790
:1000C0008BB92FEF39E688E1215030408040E1F7CD
:0A00D00000C00000F0CFF894FFCF4D
:00000001FF
