:1000000019C020C01FC01EC01DC01CC01BC01AC00C
:1000100019C018C017C016C015C014C013C012C034
:1000200011C010C010C00EC00DC00CC00BC00AC063
:1000300009C008C011241FBECFEFD2E0DEBFCDBF84
:100040002BD056C0DDCF1F921FB61F9211248F9365
:100050008091C600813341F0823309F41BB88F913F
:100060001F901FBE1F90189580E28BB98F911F9033
:100070001FBE1F90189589E18093C4001092C5009F
:100080001092C00088E98093C10086E08093C2008E
:1000900080E38AB9789408950F92CDB7DEB789E1ED
:1000A0008093C4001092C5001092C00088E980932C
:1000B000C10086E08093C20080E38AB9789490E121
:1000C00089818F5F89831BB82FEF39E688E1215042
:1000D00030408040E1F700C000009BB92FEF39E6C7
:1000E00088E1215030408040E1F700C00000E8CFB7
:0400F000F894FFCFB2
:00000001FF
