:1000000019C020C01FC01EC01DC01CC01BC01AC00C
:1000100019C018C017C016C015C014C013C012C034
:1000200011C010C00FC00EC00DC00CC00BC00AC064
:1000300009C008C011241FBECFEFD2E0DEBFCDBF84
:1000400012D03CC0DDCF89E18093C4001092C5007E
:100050001092C00088E98093C10086E08093C200BE
:1000600080E18AB908950F92CDB7DEB789E1809318
:10007000C4001092C5001092C00088E98093C100AE
:1000800086E08093C20080E18AB990E189818F5F28
:1000900089831BB82FEF39E688E12150304080403A
:1000A000E1F700C000009BB92FEF39E688E121504D
:1000B00030408040E1F700C00000E8CFF894FFCF67
:00000001FF
