:1000000019C020C01FC01EC01DC01CC01BC01AC00C
:1000100019C018C017C016C015C014C013C012C034
:1000200011C010C00FC00EC00DC00CC00BC00AC064
:1000300009C008C011241FBECFEFD2E0DEBFCDBF84
:1000400010D01FC0DDCF89E18093C4001092C5009D
:100050001092C00088E98093C10086E08093C200BE
:10006000089589E18093C4001092C5001092C000E9
:1000700088E98093C10086E08093C20090E080E030
:060080000895F894FFCF83
:00000001FF
