:100000004EC05DC05CC05BC05AC059C058C057C02C
:1000100056C055C054C053C052C051C050C04FC04C
:100020004EC04DC04CC04BC0AAC04AC048C047C01B
:1000300046C045C04B004000500067005C004600D1
:100040005269676874004C656674004261636B00B6
:1000500046726F6E742052696768740046726F6EE4
:1000600074204C6566740046726F6E74000D0A0051
:10007000446972656374696F6E3A20004C69676801
:10008000746820466F6C6C6F776572204E6176697C
:10009000676174696F6E2044656D6F0D0A001124ED
:1000A0001FBECFEFD2E0DEBFCDBF21E0A0E0B1E0C8
:1000B00001C01D92A830B207E1F7E2D006C1A0CF7F
:1000C0001F921FB61F9211242F933F934F935F935C
:1000D0008F939F93EF93FF93E0917C00E770809163
:1000E00078009091790081E08E0FF0E0E050FF4FB2
:1000F0009083982F8630B8F090E080E040E030E0C8
:10010000FC01E050FF4F20812095321710F4322F70
:10011000482F01968630910599F750E050930701DA
:100120004093060190E080917C00887F892B80932A
:100130007C008BEC80937A00FF91EF919F918F91DF
:100140005F914F913F912F911F901FBE1F90189567
:1001500090E080E030E040E0FC01E050FF4F208183
:100160002095321710F4322F482F019686309105D2
:1001700099F750E0509307014093060108951F92AC
:100180001FB61F9211248F939F93EF93FF93E0E785
:10019000F0E08491882359F094918091C00085FF0C
:1001A000FCCF9093C600319684918111F5CFE091F8
:1001B0000601F0910701EE0FFF1FEC5CFF4F8591E8
:1001C0009491FC018491882359F094918091C0000E
:1001D00085FFFCCF9093C600319684918111F5CFB5
:1001E000EDE6F0E08491882359F094918091C0006D
:1001F00085FFFCCF9093C600319684918111F5CF95
:10020000FF91EF919F918F911F901FBE1F901895A6
:1002100089E18093C4001092C5001092C00088ED5F
:100220008093C10086E08093C20080E680937C00CA
:1002300078940895FC019081992351F03196809132
:10024000C00085FFFCCF9093C60091919111F7CF2C
:100250000895FC018491882359F094918091C00005
:1002600085FFFCCF9093C600319684918111F5CF24
:1002700008959091C00095FFFCCF8093C60008952B
:1002800089E18093C4001092C5001092C00088EDEF
:100290008093C10086E08093C20080E680937C005A
:1002A0007894ECE7F0E08491882359F09491809160
:1002B000C00085FFFCCF9093C600319684918111D8
:0E02C000F5CF8BEC80937A00FFCFF894FFCF40
:00000001FF
