:100000006DC087C086C085C084C083C082C081C0E7
:1000100080C07FC07EC07DC07CC07BC07AC079C0FC
:10002000E3C277C076C075C074C00BC372C071C024
:1000300070C06FC045464765666700202B2D2E3087
:1000400031323334353637383968004C65667400E0
:1000500046726F6E74204C6566740046726F6E74E3
:100060000046726F6E742052696768740052696747
:100070006874004261636B0053687574646F776ED7
:100080002E2E2E0056616C7565733A2025642C2047
:1000900025642C2025642C2025642C2025642C200C
:1000A00025643B20446972656374696F6E3A20254C
:1000B000530A0073006D0061005B0050004B004C60
:1000C000696768746820466F6C6C6F776572204D45
:1000D0006F74696F6E2044656D6F0A0011241FBE36
:1000E000CFEFD2E0DEBFCDBF11E0A0E0B1E0EEE1A6
:1000F000F9E002C005900D92A431B107D9F721E0D3
:10010000A4E1B1E001C01D92AB32B207E1F753D1D7
:1001100004C476CFAFE0B0E0EFE8F0E0E2C25C010B
:100120006B013A01DC0117961C921E9216971396EA
:100130008C9181FFF8C0FE0131964F01D5011396D5
:10014000FC90F601F3FC1591F3FE11916F01112360
:1001500009F4B5C0153239F4F3FC1591F3FE119191
:100160006F01153279F5B501812F90E0F8D2E6CF15
:10017000112309F4A4C0612F70E08BE390E0E4D276
:10018000892B29F41332E1F01C3661F40068F60182
:10019000F3FC1591F3FE11916F0107FFE9CF1123D5
:1001A00009F48DC0612F70E084E390E0CDD2892BFB
:1001B00059F0B4E06B0E711CB5018FE390E0D6CF1F
:1001C00000E1E5CF00E0E9CF133609F450C0133762
:1001D00009F454C0133509F450C0143619F0193617
:1001E00009F066C007FF5BC0F301619171918191D5
:1001F00091913F010F7E97FF08C090958095709573
:1002000061957F4F8F4F9F4F00642AE030E0A4013B
:1002100026D3E82EE81806FF04C0B5018DE290E071
:100220009ED204FF13C0FE01EE0DF11D80818033CC
:1002300069F0B50180E390E092D202FF07C0802F01
:10024000807290E0B501885A9F4F89D2EA94F12CD0
:100250005FEFE51AF50AE80CF91CD7018E917D01D4
:10026000B50190E07CD2E814F904B9F767CFB50185
:10027000F301819191913F0179CF0160D301ED901C
:10028000FD903D01F70100FD859100FF81917F0107
:10029000882309F453CFB50190E061D2F3CFD301A5
:1002A0006D917D913D01072E000C880B990BA2CF1B
:1002B000103741F150F4183539F11F3649F1F50185
:1002C000868197812F96EEE028C2153731F01837D6
:1002D000B1F7046220E130E003C00F7E2AE030E095
:1002E00007FF19C0D3014D915D916D917D913D0145
:1002F0004C875D876E877F87A4016C857D858E85A1
:100300009F8586CF0061E5CF046020E132E0E8CF31
:1003100028E030E0E5CFF301819191913F01AC01FC
:1003200070E060E0E5CF8FEF9FEFCCCFCF93C82F89
:100330008A3051F09091C00095FFFCCFC093C60069
:1003400090E080E0CF9108958DE0F0DFF3CF9C0145
:10035000CB01F901E25FFE4F5081FB01E25FFE4FEE
:1003600040812230310589F0289A2F9883309105F9
:1003700089F084309105A8F40297D0F42E9A5C9805
:100380005093880040938A00089528982F988330CE
:10039000910579F72E9A5C9A5093880040938A00D1
:1003A00008952E985C9A5093880040938A0008958F
:1003B0002E985C98E5CF88E68AB9549A87EC84B980
:1003C00084E08BB991E090936E0093EF94BD85BD6E
:1003D00093E39093B0008093B10081EA8093800012
:1003E0008CE0809381001092B40018BC17BC89E1A6
:1003F0008093C4001092C5001092C00088E18093E1
:10040000C10086E08093C20080E680937C007894EF
:1004100080E091E090932801809327018FEB90E09A
:10042000F1D18BEC80937A0080912301909124018B
:10043000892BD1F383E098EF1092B40098BD17BCDC
:100440002FEF31EE44E0215030404040E1F700C052
:1004500000001092B40018BC17BC2FEF37E843E13E
:10046000215030404040E1F700C00000815021F7AA
:100470008091230190912401019709F4A2C0C4E85E
:10048000D0E018EF15C00197029708F065C01093EF
:10049000B40018BD17BC8FE19EE40197F1F700C0CE
:1004A00000008091230190912401019709F489C0F3
:1004B000E0912101F0912201EE0FFF1FED54FF4F5B
:1004C000859194917091200160911F0150911E01BE
:1004D00040911D0130911C0120911B019F938F932E
:1004E0001F927F931F926F931F925F931F924F9360
:1004F0001F923F931F922F93DF93CF9360D18091F0
:100500002101909122012DB73EB7205F3F4F0FB6DA
:10051000F8943EBF0FBE2DBF8330910509F43FC054
:1005200000F58130910509F440C08230910579F5DC
:1005300061E070E090E080E00ADF8091210190911D
:10054000220183309105F1F08430910508F49BCFAE
:100550000497029708F49BCF1092B40018BC17BD03
:100560009ACF8430910539F1059739F770E060E052
:1005700082E090E0ECDE80912101909122018330B5
:10058000910511F71092B40018BD17BC84CF892BC8
:10059000A1F665E070E090E080E0D9DECECF70E0BB
:1005A00060E090E080E0D3DEC8CF62E070E090E0F1
:1005B00080E0CDDEC2CF70E060E081E090E0C7DE99
:1005C000BCCF88E790E01ED128982F982E985C9891
:1005D0001092880010928A0088EF8093B40018BCB3
:1005E00017BC90E080E008951F921FB61F9211245F
:1005F0008F939F934A9915C080911A018F5F8093C2
:100600001A0180911A018D3090F081E090E0909372
:100610002401809323019F918F911F901FBE1F90F3
:10062000189510921A0180911A018D3070F710926E
:100630002401109223019F918F911F901FBE1F9044
:1006400018951F921FB61F9211242F933F934F931B
:100650005F938F939F93EF93FF93E0917C00E770FC
:10066000809178009091790081E08E0FF0E0EC5E4F
:10067000FE4F9083982F8630D8F090E080E040E0E5
:1006800030E0FC01EC5EFE4F20812095FC01E55E30
:10069000FE4F2083321710F4322F482F01968630F8
:1006A000910579F750E0509322014093210190E0A9
:1006B00080917C00887F892B80937C008BEC8093D9
:1006C0007A00FF91EF919F918F915F914F913F91B0
:1006D0002F911F901FBE1F9018952F923F924F92FF
:1006E0005F926F927F928F929F92AF92BF92CF92C2
:1006F000DF92EF92FF920F931F93CF93DF93CDB7CB
:10070000DEB7CA1BDB0B0FB6F894DEBF0FBECDBF42
:1007100009942A88398848885F846E847D848C8413
:100720009B84AA84B984C884DF80EE80FD800C811C
:100730001B81AA81B981CE0FD11D0FB6F894DEBFFF
:100740000FBECDBFED010895FC010590061621F006
:100750000020D9F7C00108953197CF0108950F9374
:100760001F93CF93DF93182F092FEB018B8181FD0E
:1007700009C01FEF0FEF812F902FDF91CF911F91B5
:100780000F91089582FF14C02E813F818C819D813D
:10079000281739073CF4E881F981CF010196998344
:1007A000888310838E819F8101969F838E83E3CF00
:1007B000E885F985812F0995892BA1F3DACFB0E07F
:1007C000A0E0E4EEF3E097CFFE01379661917191DE
:1007D00005E211E0D80112968D919C91DC011396EF
:1007E0002C911397286013962C93AF0193DC9C01F6
:1007F000D8011296ED91FC919381977F9383C90163
:10080000E4E095CF0F931F93CF93DF93EC01E0913A
:100810002701F0912801838110E000E081FD0EC0E6
:100820000FEF1FEFC801DF91CF911F910F91089536
:100830000995892B11F00FEF1FEF2196FE0184918E
:100840006091270170912801DB011896ED91FC91D0
:100850008111EECF8AE00995892B21F3E1CFFA01CE
:10086000AA27283051F1203181F1E8946F936E7FEF
:100870006E5F7F4F8F4F9F4FAF4FB1E03ED0B4E0E0
:100880003CD0670F781F891F9A1FA11D680F791F21
:100890008A1F911DA11D6A0F711D811D911DA11D32
:1008A00020D009F468943F912AE0269F1124301942
:1008B000305D3193DEF6CF010895462F4770405DDD
:1008C0004193B3E00FD0C9F7F6CF462F4F70405D8C
:1008D0004A3318F0495D31FD4052419302D0A9F7E7
:1008E000EACFB4E0A6959795879577956795BA95E1
:1008F000C9F700976105710508959B01AC010A2EA7
:1009000006945795479537952795BA95C9F7620F7D
:0E091000731F841F951FA01D0895F894FFCF3C
:10091E000000000200000000960100000000906040
:04092E0000FF6090D6
:00000001FF
