:100000005CC076C075C074C073C072C071C070C06F
:100010006FC06EC06DC06CC06BC06AC069C068C084
:1000200067C066C065C064C093C0E1C061C060C005
:100030005FC05EC04C6566740046726F6E74204C83
:100040006566740046726F6E740046726F6E74203F
:100050005269676874005269676874004261636B33
:100060000056616C7565733A2025642C2025642C3C
:100070002025642C2025642C2025642C2025643B1D
:1000800020446972656374696F6E3A2025530A00D3
:100090005C0056004A004400390034004C6967682F
:1000A000746820466F6C6C6F77657220536572764A
:1000B0006963652044656D6F0A0011241FBECFEF90
:1000C000D2E0DEBFCDBF11E0A0E0B1E0E2E7F8E0B2
:1000D00002C005900D92AE30B107D9F721E0AEE035
:1000E000B1E001C01D92A232B207E1F713D0BFC345
:1000F00087CFCF93C82F8A3051F09091C00095FFE1
:10010000FCCFC093C60090E080E0CF9108958DE0D1
:10011000F0DFF3CF89E18093C4001092C500109204
:10012000C00088ED8093C10086E08093C20080E625
:1001300080937C00789480E091E090931F018093FD
:100140001E018CE990E0C2D08BEC80937A00FFCF47
:100150001F920F920FB60F9211242F933F934F933C
:100160005F936F937F938F939F93AF93BF93EF931F
:10017000FF93E0911A01F0911B01EE0FFF1FE05772
:10018000FF4F85919491E4E1F1E0758164815381A1
:100190004281318120819F938F931F927F931F9281
:1001A0006F931F925F931F924F931F923F931F92E3
:1001B0002F9381E690E09F938F9365D08DB79EB784
:1001C00040960FB6F8949EBF0FBE8DBFFF91EF9182
:1001D000BF91AF919F918F917F916F915F914F915F
:1001E0003F912F910F900FBE0F901F9018951F9267
:1001F0001FB61F9211242F933F934F935F938F93BA
:100200009F93EF93FF93E0917C00E77080917800DB
:100210009091790081E08E0FF0E0E25FFE4F9083D5
:10022000982F8630D8F090E080E040E030E0FC018C
:10023000E25FFE4F20812095FC01EC5EFE4F2083A3
:10024000321710F4322F482F01968630910579F736
:1002500050E050931B0140931A0190E080917C0084
:10026000887F892B80937C008BEC80937A00FF91B0
:10027000EF919F918F915F914F913F912F911F909F
:100280001FBE1F901895B0E0A0E0E8E4F1E0C6C200
:10029000FE013796619171910CE111E0D80112963F
:1002A0008D919C91DC0113962C91139728601396E5
:1002B0002C93AF0138D09C01D8011296ED91FC919E
:1002C0009381977F9383C901E4E0C4C20F931F9386
:1002D000CF93DF93EC01E0911E01F0911F01838128
:1002E00010E000E081FD0EC00FEF1FEFC801DF91AD
:1002F000CF911F910F9108950995892B11F00FEF60
:100300001FEF2196FE01849160911E0170911F01E3
:10031000DB011896ED91FC918111EECF8AE00995F1
:10032000892B21F3E1CFAFE0B0E0E8E9F1E068C26A
:100330007C013B018A01DC0117961C921E921697E4
:1003400013968C9181FFB5C19AE0292EFE0131965A
:100350004F01D70113969C91F30193FD859193FF73
:1003600081913F01882309F43EC1853239F493FD20
:10037000859193FF81913F01853221F4B70190E08F
:10038000B1D1E7CFB12C412C512CBFE1B51538F0DC
:100390008B3209F188F4803201F1833221F157FC6C
:1003A0003AC020ED280F2A3040F556FE1FC0B29CFF
:1003B000200D1124B22E06C08D3291F0803379F7D2
:1003C000689450F8F30193FD859193FF81913F016B
:1003D0008111DBCF20C0689451F8689452F8F2CFB5
:1003E000689453F8EFCF689454F8ECCF429C200DFA
:1003F0001124422E689455F8E5CF8E3229F456FC2C
:10040000F2C0689456F8DECF8C3619F4689457F829
:10041000D9CF8836B9F2982F9F7D95549330B8F094
:10042000833691F18337B1F1833509F056C0D80195
:10043000CD90DD908D016B2D70E056FC02C06FEF0A
:100440007FEFC60139D15C01689457F80AC00C5F90
:100450001F4FEFE3E983AA24A394B12C6401E8942D
:1004600057F853FC04C04A141B0409F008F5342C57
:10047000A114B10419F5332009F46BCFB70180E260
:1004800090E030D13A94F7CFD8018C9189830E5FF8
:100490001F4FE1CFF801C190D1908F016B2D70E01B
:1004A00056FC02C06FEF7FEFC60111D15C01D7CFC0
:1004B000B70180E290E016D14A94D5CFF60157FCFF
:1004C000859157FE81916F01B70190E00BD13110FA
:1004D0003A94B1E0AB1AB108CBCF843619F0893623
:1004E00009F070C0F80157FE66C061917191819169
:1004F00091918F01E52DEF76DE2E97FF09C0909543
:100500008095709561957F4F8F4F9F4F6894D7F876
:100510002AE030E0A40116D1C82EC818AC2C5D2CFE
:10052000D6FE0CC0E89450F8CB1440F4D4FE05C0BD
:10053000D2FC03C05D2D5E7E552EAB2C54FE93C0C5
:10054000FE01EC0DF11D8081803309F085C0652D21
:10055000697E562E752D7870372E53FC92C050FE52
:100560008CC0BC2CA41418F44C0CB42CBA1854FE37
:100570008EC0B70180E390E0B5D052FE08C088E796
:1005800090E051FE02C088E590E0B701ABD0CB14FB
:1005900008F489C0CA94D12C8FEFC81AD80AC80CA5
:1005A000D91CD6018E916D01B70190E09BD08C14BF
:1005B0009D04B9F760CF61917191072E000C880BF3
:1005C000990B97CFD52CE894D4F82AE030E0853702
:1005D00031F1F52DF97FDF2E8037A1F050F4883509
:1005E000A1F08F36D1F0F701868197812F96E2E155
:1005F00023C18837C1F7D4FE02C06894D2F820E145
:1006000030E00DC06894D4F8F6CF54FE03C02F2F0D
:100610002660D22E20E132E002C028E030E0F8016E
:10062000D7FE14C041915191619171914C875D87C2
:100630006E877F878F01A4016C857D858E859F8560
:1006400081D0C82EC818E894D7F868CF81919191CD
:10065000AC0170E060E0EACF52FC02C0A3947ACF14
:10066000A394A39477CF852D867809F473CFF6CF22
:10067000B70180E290E036D0A394A414C8F3312CE3
:1006800076CF342C3A18A41408F471CFF8CF852D06
:10069000867809F47CCF8BE251FE80E257FC8DE234
:1006A000B70190E073CFB70180E390E01BD0BA941C
:1006B0006ECF8FEF9FEF9ACFFC0105906150704095
:1006C0000110D8F7809590958E0F9F1F0895FC011B
:1006D0006150704001900110D8F7809590958E0F71
:1006E0009F1F08950F931F93CF93DF93182F092F08
:1006F000EB018B8181FD09C01FEF0FEF812F902F40
:10070000DF91CF911F910F91089582FF14C02E8128
:100710003F818C819D81281739073CF4E881F9815C
:10072000CF0101969983888310838E819F810196E2
:100730009F838E83E3CFE885F985812F0995892BE7
:10074000A1F3DACFFA01AA27283051F1203181F143
:10075000E8946F936E7F6E5F7F4F8F4F9F4FAF4FC9
:10076000B1E03ED0B4E03CD0670F781F891F9A1FDC
:10077000A11D680F791F8A1F911DA11D6A0F711D90
:10078000811D911DA11D20D009F468943F912AE09C
:10079000269F11243019305D3193DEF6CF01089584
:1007A000462F4770405D4193B3E00FD0C9F7F6CFB5
:1007B000462F4F70405D4A3318F0495D31FD40527D
:1007C000419302D0A9F7EACFB4E0A6959795879513
:1007D00077956795BA95C9F70097610571050895F2
:1007E0009B01AC010A2E069457954795379527959E
:1007F000BA95C9F7620F731F841F951FA01D089536
:100800002F923F924F925F926F927F928F929F9220
:10081000AF92BF92CF92DF92EF92FF920F931F930E
:10082000CF93DF93CDB7DEB7CA1BDB0B0FB6F894BF
:10083000DEBF0FBECDBF09942A88398848885F84FF
:100840006E847D848C849B84AA84B984C884DF8070
:10085000EE80FD800C811B81AA81B981CE0FD11D54
:100860000FB6F894DEBF0FBECDBFED010895F8942A
:02087000FFCFB8
:0E0872000000000200000000790000000000FD
:00000001FF
