:1000000068C082C081C080C07FC07EC07DC07CC00F
:100010007BC07AC079C078C077C076C075C074C024
:100020001CC272C071C070C045C293C26DC06CC0AA
:100030006BC06AC045464765666700202B2D2E3091
:1000400031323334353637383968004C65667400E0
:1000500046726F6E74204C6566740046726F6E74E3
:100060000046726F6E742052696768740052696747
:100070006874004261636B0056616C7565733A2069
:1000800025642C2025642C2025642C2025642C201C
:1000900025642C2025643B20446972656374696F74
:1000A0006E3A2025530A0073006D0061005B00501A
:1000B000004B004C696768746820466F6C6C6F7702
:1000C000657220536572766963652044656D6F0AB9
:1000D000000011241FBECFEFD2E0DEBFCDBF11E084
:1000E000A0E0B1E0EEE2F8E002C005900D92AE3083
:1000F000B107D9F721E0AEE0B1E001C01D92A53211
:10010000B207E1F71FD191C37BCFAFE0B0E0EAE8DF
:10011000F0E06FC25C016B013A01DC0117961C92A2
:100120001E92169713968C9181FFF8C0FE013196AE
:100130004F01D5011396FC90F601F3FC1591F3FEE7
:1001400011916F01112309F4B5C0153239F4F3FC94
:100150001591F3FE11916F01153279F5B501812FDB
:1001600090E085D2E6CF112309F4A4C0612F70E09E
:100170008BE390E071D2892B29F41332E1F01C3625
:1001800061F40068F601F3FC1591F3FE11916F0123
:1001900007FFE9CF112309F48DC0612F70E084E3DC
:1001A00090E05AD2892B59F0B4E06B0E711CB50166
:1001B0008FE390E0D6CF00E1E5CF00E0E9CF133642
:1001C00009F450C0133709F454C0133509F450C072
:1001D000143619F0193609F066C007FF5BC0F30149
:1001E00061917191819191913F010F7E97FF08C0BC
:1001F00090958095709561957F4F8F4F9F4F0064CC
:100200002AE030E0A401B3D2E82EE81806FF04C0CB
:10021000B5018DE290E02BD204FF13C0FE01EE0D7C
:10022000F11D8081803369F0B50180E390E01FD239
:1002300002FF07C0802F807290E0B501885A9F4F5F
:1002400016D2EA94F12C5FEFE51AF50AE80CF91CD6
:10025000D7018E917D01B50190E009D2E814F9042F
:10026000B9F767CFB501F301819191913F0179CF42
:100270000160D301ED90FD903D01F70100FD8591F6
:1002800000FF81917F01882309F453CFB50190E0ED
:10029000EED1F3CFD3016D917D913D01072E000C7E
:1002A000880B990BA2CF103741F150F4183539F172
:1002B0001F3649F1F501868197812F96EEE0B5C191
:1002C000153731F01837B1F7046220E130E003C090
:1002D0000F7E2AE030E007FF19C0D3014D915D91F8
:1002E0006D917D913D014C875D876E877F87A4016D
:1002F0006C857D858E859F8586CF0061E5CF046006
:1003000020E132E0E8CF28E030E0E5CFF301819151
:1003100091913F01AC0170E060E0E5CF8FEF9FEF7E
:10032000CCCFCF93C82F8A3051F09091C00095FF69
:10033000FCCFC093C60090E080E0CF9108958DE09F
:10034000F0DFF3CF88E68AB984E08BB991E090932F
:100350006E0093EF94BD85BD93E39093B0008093BE
:10036000B1001092B40018BC17BC89E18093C4009E
:100370001092C5001092C00088ED8093C10086E005
:100380008093C20080E680937C00789480E091E0C6
:10039000909322018093210183EB90E0BBD18BEC01
:1003A00080937A0030E020E080911D0190911E0141
:1003B0000197D1F72F3F87E0380709F448C0B8F418
:1003C0002F313105F1F1203E87E03807E9F488EF5D
:1003D00098EF40E02FEF37E04093B40098BD87BD21
:1003E00080911D0190911E01892BD1F7DDCF203E18
:1003F0008FEF380701F12F3F320771F480E098EF5B
:1004000048EF20EE3FEFE8CF232B79F488EF98EF09
:1004100048EF2FEF3FEFE0CF2115384F31F480E068
:1004200098EF40E020EE37E0D7CF80E090E040E06A
:1004300030E020E0D1CF88EF90E040E02FE130E0E5
:10044000CBCF80E090E048EF20E038EFC5CF88EFD9
:1004500090E048EF2FE138EFBFCF1F921FB61F92F9
:1004600011248F939F934A9915C080911C018F5F2F
:1004700080931C0180911C018D3090F081E090E010
:1004800090931E0180931D019F918F911F901FBE1D
:100490001F90189510921C0180911C018D3070F7EF
:1004A00010921E0110921D019F918F911F901FBEEF
:1004B0001F9018951F920F920FB60F9211242F9331
:1004C0003F934F935F936F937F938F939F93AF93DC
:1004D000BF93EF93FF93E0911A01F0911B01EE0F90
:1004E000FF1FE955FF4F85919491E4E1F1E075819B
:1004F000648153814281318120819F938F931F9228
:100500007F931F926F931F925F931F924F931F923F
:100510003F931F922F9388E790E09F938F93D7D0BC
:100520008DB79EB740960FB6F8949EBF0FBE8DBF95
:10053000FF91EF91BF91AF919F918F917F916F91BB
:100540005F914F913F912F910F900FBE0F901F9091
:1005500018951F921FB61F9211242F933F934F930C
:100560005F938F939F93EF93FF93E0917C00E770ED
:10057000809178009091790081E08E0FF0E0E25F49
:10058000FE4F9083982F8630D8F090E080E040E0D6
:1005900030E0FC01E25FFE4F20812095FC01EC5E23
:1005A000FE4F2083321710F4322F482F01968630E9
:1005B000910579F750E050931B0140931A0190E0A8
:1005C00080917C00887F892B80937C008BEC8093CA
:1005D0007A00FF91EF919F918F915F914F913F91A1
:1005E0002F911F901FBE1F9018952F923F924F92F0
:1005F0005F926F927F928F929F92AF92BF92CF92B3
:10060000DF92EF92FF920F931F93CF93DF93CDB7BB
:10061000DEB7CA1BDB0B0FB6F894DEBF0FBECDBF33
:1006200009942A88398848885F846E847D848C8404
:100630009B84AA84B984C884DF80EE80FD800C810D
:100640001B81AA81B981CE0FD11D0FB6F894DEBFF0
:100650000FBECDBFED010895FC010590061621F0F7
:100660000020D9F7C00108953197CF0108950F9365
:100670001F93CF93DF93182F092FEB018B8181FDFF
:1006800009C01FEF0FEF812F902FDF91CF911F91A6
:100690000F91089582FF14C02E813F818C819D812E
:1006A000281739073CF4E881F981CF010196998335
:1006B000888310838E819F8101969F838E83E3CFF1
:1006C000E885F985812F0995892BA1F3DACFB0E070
:1006D000A0E0ECE6F3E097CFFE01379661917191CF
:1006E0000FE111E0D80112968D919C91DC011396D7
:1006F0002C911397286013962C93AF0106DD9C0173
:10070000D8011296ED91FC919381977F9383C90153
:10071000E4E095CF0F931F93CF93DF93EC01E0912B
:100720002101F0912201838110E000E081FD0EC0E3
:100730000FEF1FEFC801DF91CF911F910F91089527
:100740000995892B11F00FEF1FEF2196FE0184917F
:100750006091210170912201DB011896ED91FC91CD
:100760008111EECF8AE00995892B21F3E1CFFA01BF
:10077000AA27283051F1203181F1E8946F936E7FE0
:100780006E5F7F4F8F4F9F4FAF4FB1E03ED0B4E0D1
:100790003CD0670F781F891F9A1FA11D680F791F12
:1007A0008A1F911DA11D6A0F711D811D911DA11D23
:1007B00020D009F468943F912AE0269F1124301933
:1007C000305D3193DEF6CF010895462F4770405DCE
:1007D0004193B3E00FD0C9F7F6CF462F4F70405D7D
:1007E0004A3318F0495D31FD4052419302D0A9F7D8
:1007F000EACFB4E0A6959795879577956795BA95D2
:10080000C9F700976105710508959B01AC010A2E97
:1008100006945795479537952795BA95C9F7620F6E
:0E082000731F841F951FA01D0895F894FFCF2D
:0E082E00000000020000000091010000000028
:00000001FF
