:1000000046C058C057C056C055C054C053C052C057
:1000100051C050C04FC04EC04DC04CC04BC04AC074
:1000200049C048C047C046C045C044C043C042C0A4
:1000300041C040C048656C6C6F20696E6C696E652C
:1000400020696E20464C4153480D0A006E00600046
:1000500052004D656E75204974656D20320D0A00A1
:100060004D656E75204974656D20310D0A004D6532
:100070006E75204974656D20300D0A0048656C6C02
:100080006F20696E20464C4153480D0A0000112430
:100090001FBECFEFD2E0DEBFCDBF11E0A0E0B1E0E8
:1000A000E6E7F2E002C005900D92A632B107D9F75B
:1000B00036D0DFC0A5CF89E18093C4001092C5007F
:1000C0001092C00088E98093C10086E08093C2004E
:1000D0000895FC019081992351F031968091C000E0
:1000E00085FFFCCF9093C60091919111F7CF0895B1
:1000F000FC018491882359F094918091C00085FF80
:10010000FCCF9093C600319684918111F5CF08956C
:100110009091C00095FFFCCF8093C6000895CDB7A5
:10012000DEB72F970FB6F894DEBF0FBECDBF8FE0BE
:10013000E6E1F1E0DE01119601900D928A95E1F77A
:1001400089E18093C4001092C5001092C00088E934
:100150008093C10086E08093C2009981992359F071
:10016000FE0132968091C00085FFFCCF9093C600BF
:1001700091919111F7CFE1E0F1E098E48091C00016
:1001800085FFFCCF9093C60091919111F7CF2CE79A
:1001900030E0F9018491882359F094918091C00056
:1001A00085FFFCCF9093C600319684918111F5CFE5
:1001B000E4E3F0E08491882359F094918091C000A9
:1001C00085FFFCCF9093C600319684918111F5CFC5
:1001D000F9018491882371F0F90194918091C00014
:1001E00085FFFCCF9093C6002F5F3F4FF9018491AC
:1001F0008111F2CFEEE6F0E08491882359F09491DA
:100200008091C00085FFFCCF9093C6003196849109
:100210008111F5CFEEE4F0E085919491FC01849199
:10022000882359F094918091C00085FFFCCF909372
:10023000C600319684918111F5CFE0E5F0E085911B
:100240009491FC018491882359F094918091C0008D
:1002500085FFFCCF9093C600319684918111F5CF34
:1002600090E080E02F960FB6F894DEBF0FBECDBFB2
:060270000895F894FFCF91
:1002760048656C6C6F20696E6C696E6520696E20CE
:1002860052414D0D0A0048656C6C6F20696E205214
:06029600414D0D0A0000BD
:00000001FF
